:100000000C942A000C946F0B0C94AE0B0C94ED0B1B
:100010000C9447000C9447000C9447000C94470044
:100020000C9447000C9447000C9447000C948307F1
:100030000C9447000C9447000C9447000C94470024
:100040000C9447000C9447000C9447000C94470014
:100050000C94470011241FBECFE5D8E0DEBFCDBF12
:1000600011E0A0E6B0E0E6E3F7E302C005900D92F0
:10007000AA36B107D9F711E0AAE6B1E001C01D9296
:10008000AA39B107E1F70E94EA1A0C94991B0C9463
:100090000000EF92FF920F931F937B018C0120E0F1
:1000A00030E040E05FE40E94490388238CF0C801FF
:1000B000B70120E030E040E05FE40E94C1010E940F
:1000C00007049B01AC01205030404040504806C01E
:1000D000C801B7010E9407049B01AC01B901CA0124
:1000E0001F910F91FF90EF900895A0E0B0E0EBE733
:1000F000F0E00C94621BDC012B01FA019C91923020
:1001000008F439C1EB018881823008F433C194309E
:1001100069F4843009F02FC111969C91119789815F
:10012000981709F428C1A0E6B0E025C1843009F48D
:1001300021C18230A9F4923009F01DC19A01AD01AC
:1001400088E0EA010990AE01E90109929E0181501F
:10015000C1F7E201898111969C918923818308C1AD
:10016000923009F407C112962D903C901397EB0141
:100170008A819B811496AD90BD90CD90DC901797AD
:10018000EC80FD800E811F819101281B390BB90184
:1001900037FF04C066277727621B730B6032710537
:1001A0000CF061C0121613066CF537014801062EDB
:1001B00004C096948794779467940A94D2F721E0C8
:1001C00030E040E050E004C0220F331F441F551FB1
:1001D0006A95D2F721503040404050402E213F21B7
:1001E00040235123211531054105510521F021E01E
:1001F00030E040E050E079018A01E628F72808293C
:1002000019293CC0232BD1F1260E371E350146019A
:10021000062E04C096948794779467940A94D2F734
:1002200021E030E040E050E004C0220F331F441FC3
:10023000551F6A95D2F721503040404050402A2146
:100240003B214C215D21211531054105510521F04E
:1002500021E030E040E050E059016A01A628B728CB
:10026000C828D9280BC0821593052CF01C01AA249C
:10027000BB24650103C0EE24FF24870111969C91E5
:10028000D20111968C91981709F445C0992339F041
:10029000A80197012A193B094C095D0906C0A6016E
:1002A00095012E193F09400B510B57FD08C01182D3
:1002B0003382228224833583468357831DC081E0A5
:1002C00081833382228288279927DC01821B930B4A
:1002D000A40BB50B84839583A683B7830DC0220F2F
:1002E000331F441F551F24833583468357838281E0
:1002F000938101979383828324813581468157813D
:10030000DA01C9010197A109B1098F5F9F4FAF4F72
:10031000BF4328F30BC0918333822282EA0CFB1C7B
:100320000C1D1D1DE482F5820683178383E0808304
:10033000248135814681578157FF1AC0C901AA27F8
:1003400097FDA095BA2F81709070A070B0705695EF
:10035000479537952795822B932BA42BB52B848318
:100360009583A683B7838281938101969383828349
:10037000DF0101C0D201CD01CDB7DEB7E2E10C94BF
:100380007E1BA0E2B0E0E7ECF1E00C946E1B698309
:100390007A838B839C832D833E834F835887E9E048
:1003A000EE2EF12CEC0EFD1ECE010196B7010E943F
:1003B000F8058E010F5E1F4FCE010596B8010E9411
:1003C000F8058A8991E089278A8BC701B801AE01B7
:1003D000475E5F4F0E9475000E942305A096E6E0ED
:1003E0000C948A1BA0E2B0E0E8EFF1E00C946E1BE5
:1003F00069837A838B839C832D833E834F835887C5
:10040000F9E0EF2EF12CEC0EFD1ECE010196B701A6
:100410000E94F8058E010F5E1F4FCE010596B801B0
:100420000E94F805C701B801AE01475E5F4F0E9408
:1004300075000E942305A096E6E00C948A1BA0E2BA
:10044000B0E0E5E2F2E00C94621B69837A838B836F
:100450009C832D833E834F835887CE010196BE0136
:10046000675F7F4F0E94F805CE010596BE016F5E63
:100470007F4F0E94F8059985923088F089898230F3
:10048000C8F0943019F4823051F404C0843029F457
:10049000923081F480E690E0C6C0923049F420E0CA
:1004A0009A858A89981321E02A87CE010996BBC0D4
:1004B000823049F420E09A858A89981321E02A8BBA
:1004C000CE014196B0C02D843E844F8458886D88FB
:1004D0007E888F88988CEE24FF248701AA24BB2471
:1004E000650140E050E060E070E0E0E0F0E0C10174
:1004F00081709070892BE9F0E60CF71C081D191D1E
:100500009A01AB012A0D3B1D4C1D5D1D80E090E062
:10051000A0E0B0E0E614F7040805190520F481E036
:1005200090E0A0E0B0E0BA01A901480F591F6A1F8E
:100530007B1FAA0CBB1CCC1CDD1C97FE08C081E0F5
:1005400090E0A0E0B0E0A82AB92ACA2ADB2A3196B6
:10055000E032F10549F0660C771C881C991C569412
:10056000479437942794C3CFFA85EA892B893C892D
:100570008B859C85280F391F2E5F3F4F17C0CA01FE
:1005800081709070892B61F016950795F794E79428
:1005900080E090E0A0E0B0E8E82AF92A0A2B1B2BC3
:1005A00076956795579547952F5F3F4F77FDE7CF36
:1005B0000CC0440F551F661F771F17FD4160EE0CDE
:1005C000FF1C001F111F21503040403090E05907A0
:1005D00090E0690790E4790760F32B8F3C8FDB0193
:1005E000CA018F779070A070B07080349105A1051A
:1005F000B10561F447FD0AC0E114F10401051105DC
:1006000029F0405C5F4F6F4F7F4F40781A8EFE1786
:1006100011F081E08A8F4D8F5E8F6F8F78A383E01A
:10062000898FCE0149960E942305A096E2E10C94A1
:100630007E1BA8E1B0E0EFE1F3E00C946E1B698350
:100640007A838B839C832D833E834F83588789E0F5
:10065000E82EF12CEC0EFD1ECE010196B7010E9492
:10066000F8058E010F5E1F4FCE010596B8010E945E
:10067000F8058985823040F08989823028F0C701E9
:10068000B8010E94700601C08FEF6896E6E00C94F6
:100690008A1BA8E1B0E0EFE4F3E00C946E1B6983E1
:1006A0007A838B839C832D833E834F83588789E095
:1006B000E82EF12CEC0EFD1ECE010196B7010E9432
:1006C000F8058E010F5E1F4FCE010596B8010E94FE
:1006D000F8058985823040F08989823028F0C70189
:1006E000B8010E94700601C08FEF6896E6E00C9496
:1006F0008A1BA8E1B0E0EFE7F3E00C946E1B69837E
:100700007A838B839C832D833E834F83588789E034
:10071000E82EF12CEC0EFD1ECE010196B7010E94D1
:10072000F8058E010F5E1F4FCE010596B8010E949D
:10073000F8058985823040F08989823028F0C70128
:10074000B8010E94700601C081E06896E6E00C9452
:100750008A1BA8E0B0E0EFEAF3E00C946B1B9B016E
:10076000AC0183E08983DA01C9018827B7FD83954D
:100770009927AA27BB27B82E211531054105510518
:1007800019F482E089833AC08823A9F0203080E000
:10079000380780E0480780E8580729F460E070E0F7
:1007A00080E09FEC30C0EE24FF248701E21AF30AB8
:1007B000040B150B02C079018A018EE1C82ED12CE1
:1007C000DC82CB82ED82FE820F831887C801B701DD
:1007D0000E94D40401971816190684F4082E04C048
:1007E000EE0CFF1C001F111F0A94D2F7ED82FE824F
:1007F0000F831887C81AD90ADC82CB82BA82CE014D
:1008000001960E9423052896E9E00C94871BACE032
:10081000B0E0EDE0F4E00C94721B69837A838B8383
:100820009C83CE010196BE016B5F7F4F0E94F8054D
:100830008D81823061F1823050F1843021F48E81DB
:10084000882351F12EC02F81388537FD20C06E815D
:100850002F3131051CF06623F9F023C08EE190E0C2
:10086000821B930B29853A854B855C8504C0569580
:100870004795379527958A95D2F76623B1F050951D
:100880004095309521953F4F4F4F5F4F0EC020E070
:1008900030E040E050E009C02FEF3FEF4FEF5FE75F
:1008A00004C020E030E040E050E8B901CA012C96D5
:1008B000E2E00C948E1BA8E0B0E0E1E6F4E00C94DA
:1008C0006A1B7B018C01611571058105910519F485
:1008D00082E0898360C083E089838EE1C82ED12CB9
:1008E000DC82CB82ED82FE820F831887C801B701BC
:1008F0000E94D404FC013197F7FF3BC02227332725
:100900002E1B3F0B57016801022E04C0D694C794DA
:10091000B794A7940A94D2F740E050E060E070E00A
:1009200081E090E0A0E0B0E004C0880F991FAA1F0A
:10093000BB1F2A95D2F70197A109B1098E219F21EA
:10094000A023B1230097A105B10521F041E050E0BB
:1009500060E070E04A295B296C297D294D835E8324
:100960006F8378878EE190E08E1B9F0B9C838B8337
:1009700012C0309781F00E2E04C0EE0CFF1C001F39
:10098000111F0A94D2F7ED82FE820F831887CE1AC8
:10099000DF0ADC82CB821A82CE0101960E942305F7
:1009A0002896EAE00C94861BEF92FF920F931F9318
:1009B0007B018C0180E0E81680E0F80681E0080702
:1009C00080E0180788F48FEFE816F104010511059F
:1009D00031F028F088E090E0A0E0B0E017C080E0BF
:1009E00090E0A0E0B0E012C080E0E81680E0F806F9
:1009F00080E0080781E0180728F088E190E0A0E097
:100A0000B0E004C080E190E0A0E0B0E020E230E09F
:100A100040E050E0281B390B4A0B5B0B04C01695D5
:100A20000795F794E7948A95D2F7F701E859FF4FB5
:100A30008081281B310941095109C9011F910F917A
:100A4000FF90EF900895DF92EF92FF920F931F9324
:100A5000FC01E480F58006811781D180808182309D
:100A600048F480E090E0A0E1B0E0E82AF92A0A2BFF
:100A70001B2BA5C0843009F49FC0823021F4EE24E2
:100A8000FF24870105C0E114F1040105110519F4E3
:100A9000E0E0F0E096C0628173819FEF62387907F1
:100AA0000CF05BC022E83FEF261B370B2A313105E3
:100AB0002CF020E030E040E050E02AC0B801A7016F
:100AC000022E04C076956795579547950A94D2F7FC
:100AD00081E090E0A0E0B0E004C0880F991FAA1F59
:100AE000BB1F2A95D2F70197A109B1098E219F2139
:100AF000A023B1230097A105B10521F081E090E08A
:100B0000A0E0B0E09A01AB01282B392B4A2B5B2BDC
:100B1000DA01C9018F779070A070B07080349105B0
:100B2000A105B10539F427FF09C0205C3F4F4F4FA5
:100B30005F4F04C0215C3F4F4F4F5F4FE0E0F0E05C
:100B40002030A0E03A07A0E04A07A0E45A0710F0DE
:100B5000E1E0F0E079018A0127C06038710564F5B1
:100B6000FB01E158FF4FD801C7018F779070A0704B
:100B7000B07080349105A105B10539F4E7FE0DC0D0
:100B800080E490E0A0E0B0E004C08FE390E0A0E05B
:100B9000B0E0E80EF91E0A1F1B1F17FF05C01695CF
:100BA0000795F794E794319687E016950795F794A3
:100BB000E7948A95D1F705C0EE24FF248701EFEF73
:100BC000F0E06E2F679566276795902F9F77D794F3
:100BD000DD24D7948E2F8695492F462B582F5D29DB
:100BE000B701CA011F910F91FF90EF90DF90089518
:100BF000FC01DB01408151812281622F6F7770E01F
:100C0000221F2227221F9381892F880F822B282FB2
:100C100030E0991F9927991F11969C9311972115E0
:100C20003105A9F5411551056105710511F482E001
:100C300037C082E89FEF13969C938E9312979A0188
:100C4000AB0167E0220F331F441F551F6A95D1F790
:100C500083E08C930DC0220F331F441F551F129643
:100C60008D919C911397019713969C938E93129755
:100C7000203080E0380780E0480780E4580758F3C8
:100C800014962D933D934D935C93179708952F3FA2
:100C9000310579F4411551056105710519F484E0B8
:100CA0008C93089564FF03C081E08C9312C01C9262
:100CB00010C02F57304013963C932E93129783E029
:100CC0008C9387E0440F551F661F771F8A95D1F7D5
:100CD000706414964D935D936D937C93179708956C
:100CE0001F93DC01FB019C91923008F447C0808186
:100CF000823008F443C0943051F411961C91843032
:100D000099F58181682F70E0611B71093FC08430C3
:100D100021F0923031F48230B9F18181882389F158
:100D20002DC011961C9111978230F1F08181181716
:100D3000D9F412962D913C91139782819381821759
:100D4000930794F028173907BCF014968D919D9164
:100D50000D90BC91A02D24813581468157812817A3
:100D600039074A075B0718F4112341F00AC08217BC
:100D70009307A407B50740F4112319F061E070E070
:100D800005C06FEF7FEF02C060E070E0CB011F9104
:100D90000895DF93CF93CDB7DEB7A3E5B0E0E3E5E9
:100DA000F0E080818F7B8C93A3E5B0E0E3E5F0E099
:100DB0008081877F8C93A9E5B0E0E9E5F0E0808150
:100DC00081608C93CF91DF910895DF93CF93CDB75E
:100DD000DEB72C970FB6F894DEBF0FBECDBF698784
:100DE0007A878B879C871D821E821F82188680E4EB
:100DF00090E0A0E0B0E08D839E83AF83B8878985C3
:100E00009A85AB85BC8528EE33E040E050E0BC011C
:100E1000CD010E94011BDC01CB012D813E814F8160
:100E20005885BC01CD010E94401BDA01C9018983AC
:100E30009A83AB83BC8389819A81AB81BC81892FE2
:100E40009A2FAB2FBB2780936A0190936B01A093DD
:100E50006C01B0936D01898180936E0180916E0168
:100E60008823C9F0E2E5F0E080916E0181958083EE
:100E700080916A0190916B01A0916C01B0916D011C
:100E80000196A11DB11D80936A0190936B01A093FF
:100E90006C01B0936D012C960FB6F894DEBF0FBEB7
:100EA000CDBFCF91DF910895DF93CF93CDB7DEB75C
:100EB000A3E5B0E0E3E5F0E08081887F85608C9376
:100EC000CF91DF910895DF93CF93CDB7DEB7A3E540
:100ED000B0E0E3E5F0E08081887F8C93CF91DF91F3
:100EE0000895DF93CF9300D0CDB7DEB79A8389837F
:100EF00089819A8190937801809377010F900F9068
:100F0000CF91DF9108951F920F920FB60F92112487
:100F10002F933F934F935F936F937F938F939F9301
:100F2000AF93BF93EF93FF93DF93CF93CDB7DEB72C
:100F300080916F0190917001A0917101B091720147
:100F40000196A11DB11D80936F0190937001A09334
:100F50007101B093720120916F0130917001409145
:100F600071015091720180916A0190916B01A09181
:100F70006C01B0916D01281739074A075B0799F496
:100F8000E0917701F0917801099510926F0110922C
:100F900070011092710110927201E2E5F0E080910F
:100FA0006E0181958083CF91DF91FF91EF91BF9189
:100FB000AF919F918F917F916F915F914F913F91F1
:100FC0002F910F900FBE0F901F901895DF93CF9326
:100FD000CDB7DEB7E0E2F0E08CE08083A1E2B0E0E4
:100FE000E1E2F0E080818C7F8C93A6E5B0E0E6E55D
:100FF000F0E0808180648C93E2E2F0E08AE080831C
:10100000A2E2B0E0E2E2F0E0808181608C93A6E5AC
:10101000B0E0E6E5F0E0808184608C93CF91DF91D1
:101020000895DF93CF9300D000D00F92CDB7DEB7F5
:1010300081E08D83A6E5B0E0E6E5F0E080818062A6
:101040008C93A6E5B0E0E6E5F0E0808180688C93C3
:1010500019821A821B821C820BC089819A81AB8102
:10106000BC810196A11DB11D89839A83AB83BC838A
:10107000E6E5F0E08081882364F089819A81AB8184
:10108000BC81803024E2920724EFA20720E0B2075F
:1010900020F389819A81AB81BC81803024E2920760
:1010A00024EFA20720E0B20718F080E18D830EC084
:1010B000E1E2F0E08081882F90E0887F90708830B6
:1010C000910511F41D8202C082E08D838D810F9005
:1010D0000F900F900F900F90CF91DF910895DF93B5
:1010E000CF9300D000D00F92CDB7DEB781E08D83D3
:1010F000A6E5B0E0E6E5F0E0808180618C93A6E5AE
:10110000B0E0E6E5F0E0808180688C9319821A8275
:101110001B821C820BC089819A81AB81BC810196A4
:10112000A11DB11D89839A83AB83BC83E6E5F0E002
:10113000808182958F70882F90E081709070982FB9
:1011400081E08927882361F489819A81AB81BC8100
:10115000803024E2920724EFA20720E0B207D8F201
:1011600089819A81AB81BC81803024E2920724EF8F
:10117000A20720E0B20718F080E18D8301C01D8234
:101180008D810F900F900F900F900F90CF91DF9166
:101190000895DF93CF9300D000D000D0CDB7DEB755
:1011A0008E8381E08D83E3E2F0E08E81880F80837F
:1011B000A6E5B0E0E6E5F0E080818F7D8C93A6E5C2
:1011C000B0E0E6E5F0E080818F7E8C93A6E5B0E0AC
:1011D000E6E5F0E0808180688C9319821A821B8298
:1011E0001C820BC089819A81AB81BC810196A11DB3
:1011F000B11D89839A83AB83BC83E6E5F0E08081EF
:10120000882364F089819A81AB81BC81803024E29B
:10121000920724EFA20720E0B20720F389819A8188
:10122000AB81BC81803024E2920724EFA20720E04A
:10123000B20718F080E18D8328C0E1E2F0E0808100
:10124000882F90E0887F90708831910511F41D827D
:101250001CC0E1E2F0E08081882F90E0887F9070F0
:101260008032910519F486E08D830FC0E1E2F0E051
:101270008081882F90E0887F90708833910519F4E1
:1012800087E08D8302C085E08D838D8126960FB621
:10129000F894DEBF0FBECDBFCF91DF910895DF93ED
:1012A000CF9300D000D000D0CDB7DEB78E8381E0E1
:1012B0008D83E3E2F0E08E81882F90E0880F991F04
:1012C00081608083A6E5B0E0E6E5F0E080818F7D77
:1012D0008C93A6E5B0E0E6E5F0E080818F7E8C930C
:1012E000A6E5B0E0E6E5F0E0808180688C931982A5
:1012F0001A821B821C820BC089819A81AB81BC81BE
:101300000196A11DB11D89839A83AB83BC83E6E559
:10131000F0E08081882364F089819A81AB81BC816F
:10132000803024E2920724EFA20720E0B20720F3E6
:1013300089819A81AB81BC81803024E2920724EFBD
:10134000A20720E0B20718F080E18D8328C0E1E217
:10135000F0E08081882F90E0887F90708034910544
:1013600011F41D821CC0E1E2F0E08081882F90E042
:10137000887F90708834910519F489E08D830FC0BF
:10138000E1E2F0E08081882F90E0887F90708833E0
:10139000910519F487E08D8302C088E08D838D81EB
:1013A00026960FB6F894DEBF0FBECDBFCF91DF916A
:1013B0000895DF93CF9300D000D000D0CDB7DEB733
:1013C0008E8381E08D83E3E2F0E08E818083A6E569
:1013D000B0E0E6E5F0E080818F7D8C93A6E5B0E09B
:1013E000E6E5F0E080818F7E8C93A6E5B0E0E6E54F
:1013F000F0E0808180688C9319821A821B821C82A3
:101400000BC089819A81AB81BC810196A11DB11D60
:1014100089839A83AB83BC83E6E5F0E080818823EF
:1014200064F089819A81AB81BC81803024E292078B
:1014300024EFA20720E0B20720F389819A81AB81D3
:10144000BC81803024E2920724EFA20720E0B2079B
:1014500018F080E18D8328C0E1E2F0E08081882FE0
:1014600090E0887F90708832910511F41D821CC035
:10147000E1E2F0E08081882F90E0887F90708033F7
:10148000910519F48BE08D830FC0E1E2F0E08081DB
:10149000882F90E0887F90708833910519F487E059
:1014A0008D8302C08AE08D838D8126960FB6F894D5
:1014B000DEBF0FBECDBFCF91DF910895DF93CF93F5
:1014C000CDB7DEB727970FB6F894DEBF0FBECDBFFE
:1014D0009F838E8381E08D83A6E5B0E0E6E5F0E0B2
:1014E00080818F7D8C93A6E5B0E0E6E5F0E0808119
:1014F0008F7E8C93A6E5B0E0E6E5F0E08081806425
:101500008C93A6E5B0E0E6E5F0E0808180688C93FE
:1015100019821A821B821C820BC089819A81AB813D
:10152000BC810196A11DB11D89839A83AB83BC83C5
:10153000E6E5F0E08081882364F089819A81AB81BF
:10154000BC81803024E2920724EFA20720E0B2079A
:1015500020F389819A81AB81BC81803024E292079B
:1015600024EFA20720E0B20718F080E18D8321C0AC
:10157000E1E2F0E08081882F90E0887F90708035F4
:10158000910541F41D82E3E2F0E08081EE81FF816C
:1015900080830FC0E1E2F0E08081882F90E0887FB7
:1015A00090708835910519F48DE08D8302C08AE032
:1015B0008D838D8127960FB6F894DEBF0FBECDBF09
:1015C000CF91DF910895DF93CF9300D000D00F9299
:1015D000CDB7DEB781E08D83A6E5B0E0E6E5F0E0CB
:1015E000808180628C93A6E5B0E0E6E5F0E0808142
:1015F00080688C9319821A821B821C820BC089819D
:101600009A81AB81BC810196A11DB11D89839A830A
:10161000AB83BC83E6E5F0E08081882364F08981B8
:101620009A81AB81BC81803024E2920724EFA2072B
:1016300020E0B20720F389819A81AB81BC818030A0
:1016400024E2920724EFA20720E0B20718F080E11D
:101650008D830EC0E1E2F0E08081882F90E0887FEA
:1016600090708031910511F41D8202C083E08D835A
:101670008D810F900F900F900F900F90CF91DF9171
:101680000895DF93CF93CDB7DEB7AFE5B0E0EFE5D8
:10169000F0E0808180688C93CF91DF910895DF9393
:1016A000CF93CDB7DEB7AFE5B0E0EFE5F0E08081F6
:1016B0008F778C93CF91DF910895DF93CF9300D0F4
:1016C000CDB7DEB79A83898389819A8190937A0115
:1016D000809379010F900F90CF91DF9108951F9221
:1016E0000F920FB60F9211242F933F934F935F9356
:1016F0006F937F938F939F93AF93BF93EF93FF93DA
:10170000DF93CF93CDB7DEB7E0917901F0917A0105
:101710000995CF91DF91FF91EF91BF91AF919F918B
:101720008F917F916F915F914F913F912F910F908A
:101730000FBE0F901F901895DF93CF9300D0CDB7B9
:10174000DEB79A83898389819A8190937C01809303
:101750007B010F900F90CF91DF9108951F920F9210
:101760000FB60F9211242F933F934F935F936F9374
:101770007F938F939F93AF93BF93EF93FF93DF93E9
:10178000CF93CDB7DEB7E0917B01F0917C01099555
:10179000CF91DF91FF91EF91BF91AF919F918F9189
:1017A0007F916F915F914F913F912F910F900FBE5D
:1017B0000F901F901895DF93CF9300D0CDB7DEB771
:1017C0009A83898389819A8190937E0180937D0198
:1017D0000F900F90CF91DF9108951F920F920FB647
:1017E0000F9211242F933F934F935F936F937F93A7
:1017F0008F939F93AF93BF93EF93FF93DF93CF9319
:10180000CDB7DEB7E0917D01F0917E010995CF91D2
:10181000DF91FF91EF91BF91AF919F918F917F9158
:101820006F915F914F913F912F910F900FBE0F904D
:101830001F901895DF93CF93CDB7DEB78AE260E0B3
:101840000E947D0D8AE261E00E94EF0FA5E5B0E005
:10185000E5E5F0E080818C7F82608C93ABE5B0E0C1
:10186000EBE5F0E0808180648C938BE260E00E9485
:101870007D0D8BE261E00E94EF0FA5E5B0E0E5E5AC
:10188000F0E08081837F88608C93ABE5B0E0EBE58E
:10189000F0E0808180688C9386E160E00E947D0D9D
:1018A00086E161E00E94EF0FA4E5B0E0E4E5F0E03E
:1018B00080818F7B8C93ABE5B0E0EBE5F0E080813D
:1018C00080628C93CF91DF910895DF93CF93CDB752
:1018D000DEB7ABE5B0E0EBE5F0E080818F7B8C9389
:1018E000CF91DF910895DF93CF93CDB7DEB7ABE50E
:1018F000B0E0EBE5F0E080818F778C93CF91DF91C2
:101900000895DF93CF93CDB7DEB7ABE5B0E0EBE55D
:10191000F0E080818F7D8C93CF91DF910895DF93EC
:10192000CF93CDB7DEB7ABE5B0E0EBE5F0E080817B
:1019300080648C93CF91DF910895DF93CF93CDB7DF
:10194000DEB7ABE5B0E0EBE5F0E0808180688C933A
:10195000CF91DF910895DF93CF93CDB7DEB7ABE59D
:10196000B0E0EBE5F0E0808180628C93CF91DF9175
:101970000895DF93CF9300D000D0CDB7DEB7898331
:101980006A838981282F30E03C832B838B819C8163
:1019900081309105D1F02B813C81223031052CF42E
:1019A0008B819C81009761F01EC02B813C8122308D
:1019B000310581F08B819C818330910581F013C0CA
:1019C000EAE3F0E08A8180830EC0E7E3F0E08A81F9
:1019D000808309C0E4E3F0E08A81808304C0E1E30E
:1019E000F0E08A8180830F900F900F900F90CF913D
:1019F000DF910895DF93CF9300D000D0CDB7DEB74D
:101A000089836A838981282F30E03C832B838B81F3
:101A10009C8181309105D1F02B813C8122303105B0
:101A20002CF48B819C81009761F01EC02B813C813E
:101A30002230310581F08B819C818330910581F0CA
:101A400013C0EBE3F0E08A8180830EC0E8E3F0E0AE
:101A50008A81808309C0E5E3F0E08A81808304C045
:101A6000E2E3F0E08A8180830F900F900F900F9057
:101A7000CF91DF910895DF93CF9300D000D0CDB701
:101A8000DEB78A8319828A81282F30E03C832B833A
:101A90008B819C8181309105D1F02B813C8122305A
:101AA00031052CF48B819C81009761F01EC02B8145
:101AB0003C812230310581F08B819C8183309105FE
:101AC00081F013C0E9E3F0E0808189830EC0E6E392
:101AD000F0E08081898309C0E3E3F0E080818983BD
:101AE00004C0E0E3F0E08081898389810F900F904A
:101AF0000F900F90CF91DF910895DF93CF9300D097
:101B000000D000D0CDB7DEB78B836C838B819AE099
:101B1000692F0E94201B892F8A838B819AE0692F6D
:101B20000E94201B815089838981282F30E03E83C9
:101B30002D836D817E8161307105D1F18D819E8112
:101B40008230910534F42D813E812115310571F0EB
:101B500094C06D817E816230710509F44BC08D8126
:101B60009E818330910509F467C087C0AAE3B0E085
:101B7000EAE3F0E08081482F8A81282F30E081E07D
:101B800090E002C0880F991F2A95E2F780954823BC
:101B90008C81282F30E08A81882F90E0B90102C023
:101BA000660F771F8A95E2F7CB01842B8C9365C073
:101BB000A7E3B0E0E7E3F0E08081482F8A81282F97
:101BC00030E081E090E002C0880F991F2A95E2F78B
:101BD000809548238C81282F30E08A81882F90E0DF
:101BE000B90102C0660F771F8A95E2F7CB01842BFB
:101BF0008C9343C0A4E3B0E0E4E3F0E08081482F9D
:101C00008A81282F30E081E090E002C0880F991F80
:101C10002A95E2F7809548238C81282F30E08A812D
:101C2000882F90E0B90102C0660F771F8A95E2F70E
:101C3000CB01842B8C9321C0A1E3B0E0E1E3F0E081
:101C40008081482F8A81282F30E081E090E002C017
:101C5000880F991F2A95E2F7809548238C81282FB9
:101C600030E08A81882F90E0B90102C0660F771FAB
:101C70008A95E2F7CB01842B8C9326960FB6F894C5
:101C8000DEBF0FBECDBFCF91DF910895DF93CF931D
:101C900000D000D00F92CDB7DEB78B838B819AE056
:101CA000692F0E94201B892F8A838B819AE0692FDC
:101CB0000E94201B815089838981282F30E03D8339
:101CC0002C838C819D818130910549F12C813D814E
:101CD000223031052CF48C819D81009761F05AC02F
:101CE0002C813D812230310571F18C819D818330C1
:101CF0009105E9F14FC0ABE3B0E0EBE3F0E08081A8
:101D0000482F8A81282F30E081E090E0022E02C027
:101D1000880F991F0A94E2F7842B8C933BC0A8E3A9
:101D2000B0E0E8E3F0E08081482F8A81282F30E09E
:101D300081E090E0022E02C0880F991F0A94E2F71A
:101D4000842B8C9327C0A5E3B0E0E5E3F0E080812D
:101D5000482F8A81282F30E081E090E0022E02C0D7
:101D6000880F991F0A94E2F7842B8C9313C0A2E387
:101D7000B0E0E2E3F0E08081482F8A81282F30E054
:101D800081E090E0022E02C0880F991F0A94E2F7CA
:101D9000842B8C930F900F900F900F900F90CF91FA
:101DA000DF910895DF93CF9300D000D00F92CDB78D
:101DB000DEB78B838B819AE0692F0E94201B892FCD
:101DC0008A838B819AE0692F0E94201B815089832E
:101DD0008981282F30E03D832C838C819D81813047
:101DE000910559F12C813D81223031052CF48C81F3
:101DF0009D81009769F05FC02C813D8122303105C3
:101E000089F18C819D818330910509F440C053C0D4
:101E1000ABE3B0E0EBE3F0E08081482F8A81282F2C
:101E200030E081E090E0022E02C0880F991F0A94F2
:101E3000E2F7809584238C933EC0A8E3B0E0E8E30A
:101E4000F0E08081482F8A81282F30E081E090E007
:101E5000022E02C0880F991F0A94E2F7809584230E
:101E60008C9329C0A5E3B0E0E5E3F0E08081482F42
:101E70008A81282F30E081E090E0022E02C0880F96
:101E8000991F0A94E2F7809584238C9314C0A2E3EF
:101E9000B0E0E2E3F0E08081482F8A81282F30E033
:101EA00081E090E0022E02C0880F991F0A94E2F7A9
:101EB000809584238C930F900F900F900F900F902C
:101EC000CF91DF910895DF93CF9300D000D00F9290
:101ED000CDB7DEB78B838B819AE0692F0E94201BE0
:101EE000892F8A838B819AE0692F0E94201B815061
:101EF00089838981282F30E03D832C838C819D81CB
:101F00008130910549F12C813D81223031052CF43D
:101F10008C819D81009761F05AC02C813D812230D7
:101F2000310571F18C819D8183309105E9F14FC0BC
:101F3000ABE3B0E0EBE3F0E08081482F8A81282F0B
:101F400030E081E090E0022E02C0880F991F0A94D1
:101F5000E2F784278C933BC0A8E3B0E0E8E3F0E02D
:101F60008081482F8A81282F30E081E090E0022E86
:101F700002C0880F991F0A94E2F784278C9327C028
:101F8000A5E3B0E0E5E3F0E08081482F8A81282FC7
:101F900030E081E090E0022E02C0880F991F0A9481
:101FA000E2F784278C9313C0A2E3B0E0E2E3F0E011
:101FB0008081482F8A81282F30E081E090E0022E36
:101FC00002C0880F991F0A94E2F784278C930F9020
:101FD0000F900F900F900F90CF91DF910895DF93A6
:101FE000CF9300D000D000D0CDB7DEB78B836C8309
:101FF0008B819AE0692F0E94201B892F8A838B8115
:102000009AE0692F0E94201B815089838981282FA3
:1020100030E03E832D836D817E8161307105D1F189
:102020008D819E818230910534F42D813E81211570
:10203000310571F094C06D817E816230710509F4C3
:102040004BC08D819E818330910509F467C087C0A4
:10205000ABE3B0E0EBE3F0E08081482F8A81282FEA
:1020600030E081E090E002C0880F991F2A95E2F7E6
:10207000809548238C81282F30E08A81882F90E03A
:10208000B90102C0660F771F8A95E2F7CB01842B56
:102090008C9365C0A8E3B0E0E8E3F0E08081482FCE
:1020A0008A81282F30E081E090E002C0880F991FDC
:1020B0002A95E2F7809548238C81282F30E08A8189
:1020C000882F90E0B90102C0660F771F8A95E2F76A
:1020D000CB01842B8C9343C0A5E3B0E0E5E3F0E0B3
:1020E0008081482F8A81282F30E081E090E002C073
:1020F000880F991F2A95E2F7809548238C81282F15
:1021000030E08A81882F90E0B90102C0660F771F06
:102110008A95E2F7CB01842B8C9321C0A2E3B0E037
:10212000E2E3F0E08081482F8A81282F30E081E0CF
:1021300090E002C0880F991F2A95E2F78095482306
:102140008C81282F30E08A81882F90E0B90102C06D
:10215000660F771F8A95E2F7CB01842B8C93269626
:102160000FB6F894DEBF0FBECDBFCF91DF910895BB
:10217000DF93CF9300D000D000D0CDB7DEB78C83F3
:102180008C819AE0692F0E94201B892F8B838C8180
:102190009AE0692F0E94201B81508A8319828A81CC
:1021A000282F30E03E832D834D815E8141305105E3
:1021B00041F18D819E818230910534F42D813E81E3
:1021C0002115310561F052C04D815E8142305105CB
:1021D00051F18D819E8183309105B9F147C0E9E3CA
:1021E000F0E08081282F30E08B81882F90E0A901DA
:1021F00002C0559547958A95E2F7CA018170898397
:1022000035C0E6E3F0E08081282F30E08B81882F15
:1022100090E0A90102C0559547958A95E2F7CA0159
:102220008170898323C0E3E3F0E08081282F30E0D0
:102230008B81882F90E0A90102C0559547958A951A
:10224000E2F7CA018170898311C0E0E3F0E0808188
:10225000282F30E08B81882F90E0A90102C055958E
:1022600047958A95E2F7CA0181708983898126960C
:102270000FB6F894DEBF0FBECDBFCF91DF910895AA
:10228000DF93CF93CDB7DEB7A7E2B0E0E7E2F0E0AF
:1022900080818F738C93A7E2B0E0E7E2F0E0808169
:1022A0008F7D8C93A6E2B0E0E6E2F0E0808187606B
:1022B0008C93A6E2B0E0E6E2F0E080818F7D8C9323
:1022C000A6E2B0E0E6E2F0E08081877F8C93A5E2B1
:1022D000B0E0E5E2F0E080818F718C93A6E2B0E09F
:1022E000E6E2F0E0808180688C93CF91DF910895E1
:1022F000DF93CF9300D000D00F92CDB7DEB78B83A2
:102300008B81282F30E03D832C838C819D8183300D
:10231000910509F445C02C813D81243031057CF4C0
:102320008C819D818130910549F12C813D81223044
:1023300031056CF58C819D810097C1F05DC02C81C9
:102340003D812530310509F43DC08C819D8185306A
:1023500091057CF12C813D8126303105E1F18C81A4
:102360009D818730910509F43FC046C0A7E2B0E0E7
:10237000E7E2F0E08081807E8C933EC0A7E2B0E08F
:10238000E7E2F0E08081807E81608C9335C0A7E237
:10239000B0E0E7E2F0E08081807E82608C932CC028
:1023A000A7E2B0E0E7E2F0E08081807E83608C937A
:1023B00023C0A7E2B0E0E7E2F0E08081807E8460A5
:1023C0008C931AC0A7E2B0E0E7E2F0E08081807E63
:1023D00085608C9311C0A7E2B0E0E7E2F0E0808175
:1023E000807E86608C9308C0A7E2B0E0E7E2F0E070
:1023F0008081807E87608C93A6E2B0E0E6E2F0E028
:10240000808180648C93E6E2F0E0808182958F7019
:10241000882F90E0817090700097A9F3E4E2F0E0DB
:1024200080819181CC01A0E0B0E028E833E140E078
:1024300050E0BC01CD010E94011BDC01CB01072E45
:102440007AE0B695A795979587957A95D1F7702DEF
:102450009A83898389819A810F900F900F900F90B2
:102460000F90CF91DF910895DF93CF93CDB7DEB773
:102470000E944011CF91DF910895DF93CF9300D058
:10248000CDB7DEB78A8319828A81813151F487E022
:102490000E9478112AE030E0B9010E942C1BCB0188
:1024A000898389810F900F90CF91DF910895DF93F9
:1024B000CF93CDB7DEB728970FB6F894DEBF0FBE27
:1024C000CDBF89836A835C834B838A81282F30E068
:1024D00038872F838F819885009789F12F813885E0
:1024E0002130310581F50E941A0C8981282F30E0B6
:1024F0003E832D838D819E818A32910559F02D81F5
:102500003E812B32310569F08D819E8186319105A6
:1025100079F019C00E948F0C8B819C810E945D0B09
:1025200012C00E949D0C8B819C810E949C0B0BC051
:102530000E94AB0C8B819C810E94DB0B04C08981C3
:1025400060E00E947D0D28960FB6F894DEBF0FBEA6
:10255000CDBFCF91DF910895DF93CF9300D00F923D
:10256000CDB7DEB789838981282F30E03B832A836A
:102570008A819B818A32910559F02A813B812B32D5
:10258000310549F08A819B818631910539F008C077
:102590000E948F0C05C00E949D0C02C00E94AB0CD3
:1025A0000F900F900F90CF91DF910895DF93CF930D
:1025B00000D00F92CDB7DEB789838981282F30E014
:1025C0003B832A838A819B818A32910559F02A8133
:1025D0003B812B32310549F08A819B8186319105FF
:1025E00039F008C00E94650C05C00E94730C02C03F
:1025F0000E94810C0F900F900F90CF91DF91089562
:10260000DF93CF9300D00F92CDB7DEB78A838A8154
:102610000E94B81089831B828981882311F081E090
:102620008B838B81898389810F900F900F90CF913D
:10263000DF910895DF93CF930F92CDB7DEB78983F3
:10264000898161E00E947D0D0F90CF91DF91089507
:10265000DF93CF930F92CDB7DEB78983898161E095
:102660000E94EF0F0F90CF91DF910895DF93CF93EA
:102670000F92CDB7DEB78983898160E00E94EF0FAA
:102680000F90CF91DF910895DF93CF930F92CDB745
:10269000DEB7898389810E94630F0F90CF91DF910C
:1026A0000895DF93CF930F92CDB7DEB789838981E9
:1026B00061E00E947D0D0F90CF91DF910895DF932F
:1026C000CF930F92CDB7DEB7898389810E94460EE2
:1026D0000F90CF91DF910895DF93CF930F92CDB7F5
:1026E000DEB7898389810E94D20E0F90CF91DF914E
:1026F0000895DF93CF93CDB7DEB70E94E607CF9161
:10270000DF910895DF93CF9300D000D0CDB7DEB72F
:102710008A836B834C8381E089830E9411088983BB
:102720008981882329F48B8180650E94C908898367
:102730008981882321F48C810E94D9098983898128
:10274000882321F48A810E94D90989838981882379
:1027500019F40E946F0889838981882311F41982F2
:1027600002C081E0898389810F900F900F900F90B4
:10277000CF91DF910895DF93CF9300D000D00F92D7
:10278000CDB7DEB78A836B835D834C8381E0898319
:102790000E94110889838981882329F48A818065B0
:1027A0000E94C90889838981882321F48B810E9432
:1027B000D90989838981882319F40E94E30A8983CE
:1027C0008981882329F48A8180650E944F09898341
:1027D0008981882329F48C819D810E945E0A8983E6
:1027E0008981882319F40E946F088983898188234D
:1027F00011F4198202C081E0898389810F900F90C2
:102800000F900F900F90CF91DF910895DF93CF93AA
:10281000CDB7DEB785E161E00E947D0D84E161E026
:102820000E947D0D81E161E00E947D0D8AE061E002
:102830000E947D0D8BE061E00E947D0D8CE061E0E7
:102840000E947D0D8DE061E00E947D0D8EE061E0D3
:102850000E947D0D8FE061E00E947D0D80E161E0CE
:102860000E947D0DCF91DF910895DF93CF93CDB777
:10287000DEB785E10E94460E84E10E94D20ECF9120
:10288000DF910895DF93CF93CDB7DEB784E10E9447
:10289000460E85E10E94D20ECF91DF910895DF931D
:1028A000CF93CDB7DEB785E10E94460E84E10E944A
:1028B000460ECF91DF910895DF93CF930F92CDB75E
:1028C000DEB789830E94351489819AE0692F0E94BE
:1028D000201B882F90E09C01220F331FC901880F15
:1028E000991F880F991F820F931F909581959F4F75
:1028F000982F8981890F0E943F160F90CF91DF9109
:102900000895DF93CF930F92CDB7DEB789830E94EE
:10291000421489819AE0692F0E94201B0E943F1671
:102920000F90CF91DF910895DF93CF9300D000D027
:10293000CDB7DEB789836A838A81282F30E03C8354
:102940002B838B819C81009731F02B813C8121303E
:10295000310529F007C089810E945C1403C0898178
:102960000E9481140F900F900F900F90CF91DF91E4
:102970000895DF93CF930F92CDB7DEB71982E8E3C6
:10298000F0E080818695882F90E081709070982F7C
:1029900081E08927882371F4E8E3F0E08081882FC3
:1029A00090E081709070982F81E08927882311F43E
:1029B000198202C081E0898389810F90CF91DF91D4
:1029C0000895DF93CF93CDB7DEB78AE061E00E9430
:1029D000EF0F8BE061E00E94EF0F8CE061E00E945E
:1029E000EF0F8DE061E00E94EF0F8EE061E00E944A
:1029F000EF0F8FE061E00E94EF0F80E160E00E9446
:102A0000EF0FCF91DF910895DF93CF93CDB7DEB76E
:102A10008AE060E00E94EF0F8BE061E00E94EF0F20
:102A20008CE061E00E94EF0F8DE060E00E94EF0F0C
:102A30008EE060E00E94EF0F8FE060E00E94EF0FF9
:102A400080E160E00E94EF0FCF91DF910895DF9366
:102A5000CF93CDB7DEB78AE061E00E94EF0F8BE045
:102A600061E00E94EF0F8CE060E00E94EF0F8DE0CC
:102A700061E00E94EF0F8EE061E00E94EF0F8FE0B7
:102A800060E00E94EF0F80E161E00E94EF0FCF91C4
:102A9000DF910895DF93CF93CDB7DEB78AE061E091
:102AA0000E94EF0F8BE061E00E94EF0F8CE061E08D
:102AB0000E94EF0F8DE061E00E94EF0F8EE060E07A
:102AC0000E94EF0F8FE060E00E94EF0F80E161E075
:102AD0000E94EF0FCF91DF910895DF93CF93CDB791
:102AE000DEB78AE060E00E94EF0F8BE061E00E94B9
:102AF000EF0F8CE061E00E94EF0F8DE060E00E943C
:102B0000EF0F8EE060E00E94EF0F8FE061E00E9427
:102B1000EF0F80E161E00E94EF0FCF91DF91089508
:102B2000DF93CF93CDB7DEB78AE061E00E94EF0F6D
:102B30008BE060E00E94EF0F8CE061E00E94EF0FFD
:102B40008DE061E00E94EF0F8EE060E00E94EF0FE9
:102B50008FE061E00E94EF0F80E161E00E94EF0FE3
:102B6000CF91DF910895DF93CF93CDB7DEB78AE0A1
:102B700061E00E94EF0F8BE060E00E94EF0F8CE0BD
:102B800061E00E94EF0F8DE061E00E94EF0F8EE0A8
:102B900061E00E94EF0F8FE061E00E94EF0F80E1A3
:102BA00061E00E94EF0FCF91DF910895DF93CF9303
:102BB000CDB7DEB78AE061E00E94EF0F8BE061E005
:102BC0000E94EF0F8CE061E00E94EF0F8DE060E06B
:102BD0000E94EF0F8EE060E00E94EF0F8FE060E058
:102BE0000E94EF0F80E160E00E94EF0FCF91DF9134
:102BF0000895DF93CF93CDB7DEB78AE061E00E94FE
:102C0000EF0F8BE061E00E94EF0F8CE061E00E942B
:102C1000EF0F8DE061E00E94EF0F8EE061E00E9417
:102C2000EF0F8FE061E00E94EF0F80E161E00E9412
:102C3000EF0FCF91DF910895DF93CF93CDB7DEB73C
:102C40008AE061E00E94EF0F8BE061E00E94EF0FED
:102C50008CE061E00E94EF0F8DE061E00E94EF0FD9
:102C60008EE060E00E94EF0F8FE061E00E94EF0FC6
:102C700080E161E00E94EF0FCF91DF910895DF9333
:102C8000CF9300D00F92CDB7DEB789838981282FEB
:102C900030E03B832A838A819B818430910509F44B
:102CA0004BC02A813B8125303105D4F48A819B8138
:102CB00081309105C1F12A813B81223031052CF40C
:102CC0008A819B81009761F149C02A813B81223032
:102CD000310561F18A819B818330910551F13EC0BC
:102CE0002A813B812730310581F18A819B8188309F
:102CF00091055CF42A813B812530310501F18A81FF
:102D00009B8186309105F1F029C02A813B812830D2
:102D10003105F1F08A819B8189309105E1F01EC077
:102D20000E94E1141DC00E9404151AC00E942715BC
:102D300017C00E944A1514C00E946D1511C00E9450
:102D400090150EC00E94B3150BC00E94D61508C086
:102D50000E94F91505C00E941C1602C00E94E114D1
:102D60000F900F900F90CF91DF910895DF93CF9345
:102D70000F92CDB7DEB78983898161E00E947D0D16
:102D80000F90CF91DF910895DF93CF930F92CDB73E
:102D9000DEB7898389810E94460E0F90CF91DF9123
:102DA0000895DF93CF930F92CDB7DEB789838981E2
:102DB0000E94D20E0F90CF91DF910895DF93CF93B1
:102DC000CDB7DEB780918C018130F1F410928C0187
:102DD00010928E01109291011092900110928F0129
:102DE0000E9498180E944F1481E20E946C1383E2A3
:102DF0000E94D11682E20E9436138AE20E94D61205
:102E00008BE20E94D6120BC081E080938C010E945D
:102E10008F188AE20E94AC128BE20E94AC12CF9112
:102E2000DF910895DF93CF93CDB7DEB7809168012E
:102E30008B3478F480918E01813059F4809168014F
:102E40008B5F809368018091680160E040E00E94A0
:102E5000821381E080938E01109291011092900173
:102E6000CF91DF910895DF93CF93CDB7DEB78091F7
:102E70006801843278F080918E01813059F480911C
:102E800068018550809368018091680160E040E0AE
:102E90000E94821381E080938E0110929101109222
:102EA0009001CF91DF910895EF92FF920F931F93BE
:102EB000DF93CF9300D0CDB7DEB780918F018F5FC6
:102EC00080938F0180918F019AE0692F0E94201BCF
:102ED000892F882309F0A4C081E10E943D128093CC
:102EE0007F0180918F019AE0692F0E94201B882F1B
:102EF00090E0019720917F01FC01E058FE4F208374
:102F0000198216C08981882F90E0FC01E058FE4F9D
:102F10008081282F30E080918A0190918B01820F6F
:102F2000931F90938B0180938A0189818F5F89839E
:102F300089818A3038F380918A0190918B012AE04F
:102F400030E0B9010E942C1BCB01CC01A0E0B0E025
:102F5000BC01CD010E945B047B018C018091680162
:102F6000882F90E00596AA2797FDA095BA2FBC015F
:102F7000CD010E94A9039B01AC01C801B7010E94C9
:102F80001903181654F483E20E94C41681E20E94C9
:102F90006C1382E20E9428133FC080918A019091B5
:102FA0008B012AE030E0B9010E942C1BCB01CC013F
:102FB000A0E0B0E0BC01CD010E945B047B018C016C
:102FC00080916801882F90E00597AA2797FDA0952A
:102FD000BA2FBC01CD010E94A9039B01AC01C8011D
:102FE000B7010E947903882374F481E20E945F1381
:102FF00083E20E94D11680918F01843668F082E2CC
:103000000E94441309C081E20E946C1383E20E9473
:10301000D11682E20E94361310928B0110928A011F
:1030200080918F01843610F010928F0180918E0173
:10303000813009F041C080919001909191010196F9
:1030400090939101809390018091900190919101D2
:1030500024E630E0B9010E942C1B009769F40E941D
:10306000B914813019F40E944F1406C00E94B9149B
:10307000882311F40E9435140E94B914813039F468
:103080008091680190918D01692F0E949414809124
:1030900090019091910121E0843F9207C0F010923D
:1030A0008E0110929101109290018091680160E070
:1030B00040E00E9482130BC080918E01882339F476
:1030C00080917F0190918D01692F0E9494148091CD
:1030D0008D011A82882311F481E08A832A8120934A
:1030E0008D010F900F90CF91DF911F910F91FF9065
:1030F000EF900895DF93CF93CDB7DEB70E94C90656
:103100006AE070E080E090E00E94E506809198011E
:10311000909199010E947107CF91DF910895DF93FB
:10312000CF93CDB7DEB70E945407CF91DF910895BA
:10313000DF93CF93CDB7DEB70E946307CF91DF91C6
:103140000895DF93CF93CDB7DEB7AB970FB6F89462
:10315000DEBF0FBECDBF0E94410B809192019091C6
:103160009301009731F48EED96E190939301809353
:1031700092018091940190919501009731F482E140
:1031800097E190939501809394018091960190919D
:103190009701009731F483E397E19093970180932F
:1031A00096018091980190919901009731F484E5FE
:1031B00097E1909399018093980120919201309129
:1031C000930186E161E0A9010E94571220919401C8
:1031D000309195018AE261E0A9010E945712209185
:1031E0009601309197018BE261E0A9010E9457128C
:1031F0000E947A180E9406140E94341281E10E94F3
:103200003D1280937F011BA60CC08BA5882F90E0F8
:1032100020917F01FC01E058FE4F20838BA58F5F3A
:103220008BA78BA58A3088F381E20E94511382E23A
:103230000E941A1383E20E94B6160E94791380E05E
:1032400090E0A0E8BFE38FA398A7A9A7BAA76FA1B2
:1032500078A589A59AA520E030E04AE755E40E94C8
:103260001F02DC01CB018BA39CA3ADA3BEA36BA16A
:103270007CA18DA19EA120E030E040E85FE30E94A8
:10328000790388232CF481E090E09AA389A33FC0BE
:103290006BA17CA18DA19EA120E03FEF4FE757E4F9
:1032A0000E94190318164CF56FA178A589A59AA557
:1032B00020E030E040E251E40E941F02DC01CB013B
:1032C000BC01CD010E944900DC01CB019AA389A376
:1032D0000FC080E991E098A38F8F8F8D98A10197FF
:1032E000F1F798A38F8F89A19AA101979AA389A337
:1032F00089A19AA1009769F714C06BA17CA18DA147
:103300009EA10E944900DC01CB019AA389A389A157
:103310009AA19E8F8D8F8D8D9E8D0197F1F79E8F37
:103320008D8F28E631E080E060E0A9010E94BB13A8
:1033300080E090E0A0E8BFE3898F9A8FAB8FBC8FCD
:10334000698D7A8D8B8D9C8D20E030E04AE755E4C5
:103350000E941F02DC01CB018D8B9E8BAF8BB88F3F
:103360006D897E898F89988D20E030E040E85FE3A9
:103370000E94790388232CF481E090E09C8B8B8B56
:103380003FC06D897E898F89988D20E03FEF4FE7A0
:1033900057E40E94190318164CF5698D7A8D8B8DB0
:1033A0009C8D20E030E040E251E40E941F02DC01ED
:1033B000CB01BC01CD010E944900DC01CB019C8BFB
:1033C0008B8B0FC080E991E09A8B898B89899A89D0
:1033D0000197F1F79A8B898B8B899C8901979C8B3C
:1033E0008B8B8B899C89009769F714C06D897E89C6
:1033F0008F89988D0E944900DC01CB019C8B8B8BBF
:103400008B899C89988B8F878F8598890197F1F795
:10341000988B8F87809168018F3F09F07AC08CE389
:10342000809368018CE360E040E00E94821380E0BA
:1034300090E0A0E8BFE38B879C87AD87BE876B8554
:103440007C858D859E8520E030E04AE755E40E942A
:103450001F02DC01CB018F839887A987BA876F8110
:10346000788589859A8520E030E040E85FE30E9416
:10347000790388232CF481E090E09E838D833FC004
:103480006F81788589859A8520E03FEF4FE757E483
:103490000E94190318164CF56B857C858D859E85D9
:1034A00020E030E040E251E40E941F02DC01CB0149
:1034B000BC01CD010E944900DC01CB019E838D83BC
:1034C0000FC080E991E09C838B838B819C81019765
:1034D000F1F79C838B838D819E8101979E838D83E1
:1034E0008D819E81009769F714C06F8178858985E9
:1034F0009A850E944900DC01CB019E838D838D81DA
:103500009E819A83898389819A810197F1F79A83B1
:103510008983AB960FB6F894DEBF0FBECDBFCF91B7
:10352000DF910895DF93CF9300D0CDB7DEB79A83B4
:10353000898389819A81009731F089819A8190935A
:103540009301809392010F900F90CF91DF91089596
:10355000DF93CF9300D0CDB7DEB79A83898389817B
:103560009A81009731F089819A8190939501809397
:1035700094010F900F90CF91DF910895DF93CF9337
:1035800000D0CDB7DEB79A83898389819A8100976D
:1035900031F089819A8190939701809396010F90E1
:1035A0000F90CF91DF910895DF93CF9300D0CDB7E7
:1035B000DEB79A83898389819A81009731F0898166
:1035C0009A8190939901809398010F900F90CF91D9
:1035D000DF910895DF93CF93CDB7DEB780E090E021
:1035E0000E94921A80E090E00E94A81A80E090E089
:1035F0000E94BE1A80E090E00E94D41A0E94A11896
:10360000FFCF629FD001739FF001829FE00DF11DFB
:10361000649FE00DF11D929FF00D839FF00D749F4C
:10362000F00D659FF00D9927729FB00DE11DF91FF8
:10363000639FB00DE11DF91FBD01CF011124089555
:10364000991B79E004C0991F961708F0961B881FF4
:103650007A95C9F780950895AA1BBB1B51E107C055
:10366000AA1FBB1FA617B70710F0A61BB70B881F12
:10367000991F5A95A9F780959095BC01CD010895A1
:10368000A1E21A2EAA1BBB1BFD010DC0AA1FBB1F66
:10369000EE1FFF1FA217B307E407F50720F0A21BD8
:1036A000B30BE40BF50B661F771F881F991F1A9445
:1036B00069F760957095809590959B01AC01BD016F
:1036C000CF0108952F923F924F925F926F927F9217
:1036D0008F929F92AF92BF92CF92DF92EF92FF9222
:1036E0000F931F93CF93DF93CDB7DEB7CA1BDB0BCE
:1036F0000FB6F894DEBF0FBECDBF09942A88398873
:1037000048885F846E847D848C849B84AA84B98479
:10371000C884DF80EE80FD800C811B81AA81B98185
:10372000CE0FD11D0FB6F894DEBF0FBECDBFED0199
:063730000895F894FFCF9C
:103736000000000000000000000102020303030372
:10374600040404040404040405050505050505052B
:10375600050505050505050506060606060606060B
:1037660006060606060606060606060606060606F3
:1037760006060606060606060707070707070707DB
:1037860007070707070707070707070707070707C3
:1037960007070707070707070707070707070707B3
:1037A60007070707070707070707070707070707A3
:1037B600070707070707070708080808080808088B
:1037C6000808080808080808080808080808080873
:1037D6000808080808080808080808080808080863
:1037E6000808080808080808080808080808080853
:1037F6000808080808080808080808080808080843
:103806000808080808080808080808080808080832
:103816000808080808080808080808080808080822
:103826000808080808080808080808080808080812
:0A38360008080808080808083C000C
:00000001FF
